:020000000F28C7
:10000800DE00030E8312A0000408A1000A08A20063
:100018005F08A300B12810288312B701B801B901FD
:10002800BA0183011728D920CE20831285143A08F3
:10003800B6003908B5003808B4003708B3003708E7
:10004800AB003808AC003908AD003A08AE003309F7
:10005800AF003409B0003509B1003609B200AF0A63
:100068000319B00A0319B10A0319B20A2F08AB071A
:1000780030080318300F41284228AC07310803180C
:10008800310F47284828AD0732080318320AAE074F
:100098002E08031D5C282D08031D5C2803302C0244
:1000A800031D5A28E8302B02031D5A28031C232855
:1000B800050C0139AB000130AB06AB0D05082B066A
:1000C800FD392B0685001B2801306D2802306D286C
:1000D8000330A4000030A5007C208312051968288D
:1000E80085196A28051A6C28851E712804306D2820
:1000F8008312A901AA012A08803AA6002508803A95
:100108002602031D892824082902031808008312DF
:1001180085140230A8000430A700BA30A600A60B48
:100128009328A70B9328A80B932800008312851007
:100138000230A8000430A700BA30A600A60BA228F7
:10014800A70BA228A80BA228000001308312A90738
:100158000318AA0A0030AA077F280B198B1EC32888
:100168000130B707003003180130B8070030031812
:100178000130B907003003180130BA070B11230802
:10018800DF0022088A0021088400200E8300DE0E8A
:100198005E0E09008B178B160B1183168112011244
:1001A8008111011081100111080007308312990094
:1001B80083168510811705158515051685160800FF
:02400E009531EA
:00000001FF
