:020000000F28C7
:10000800DE00030E8312A0000408A1000A08A20063
:100018005F08A300B02810288313333084004530CC
:10002800E42083011728CD20D920831285144408A1
:10003800C8004308C7004208C6004108C500410877
:10004800AB004208AC004308AD004408AE004509C7
:10005800AF004609B0004709B1004809B200AF0A2D
:100068000319B00A0319B10A0319B20A2F08AB071A
:1000780030080318300F41284228AC07310803180C
:10008800310F47284828AD0732080318320AAE074F
:100098002E08031D5B282D08031D5B282C08031D53
:1000A8005B2864302B02031D5928031C2328050CE8
:1000B8000139AB000130AB06AB0D05082B06FD3945
:1000C8002B0685001B2801306C2802306C28033071
:1000D800A4000030A5007B20831205196728851924
:1000E8006928051A6B28851E702804306C2883122D
:1000F800A901AA012A08803AA6002508803A260202
:10010800031D88282408290203180800831285146F
:100118000230A8000430A700BA30A600A60B922827
:10012800A70B9228A80B9228000083128510023092
:10013800A8000430A700BA30A600A60BA128A70B78
:10014800A128A80BA128000001308312A9070318D1
:10015800AA0A0030AA077E280B198B1EC228013074
:10016800C107003003180130C207003003180130FE
:10017800C307003003180130C4070B112308DF0040
:1001880022088A0021088400200E8300DE0E5E0EFD
:100198000900073083129900831685108117051509
:1001A800851505168516051008008B178B160B117B
:1001B80083168112011281110110811001110800AA
:1001C80064008001840A0406031900340406E52843
:02400E009531EA
:00000001FF
